:020000040800F2
:10000000387A00200D020008912D0008D523000841
:100010008D2D0008AD070008FD93000800000000CA
:1000200000000000000000000000000095650008CE
:10003000990A000800000000315A0008F56800081D
:10004000270200082702000827020008F15C0008C8
:1000500027020008270200082702000827020008DC
:1000600027020008270200082702000827020008CC
:1000700027020008270200082702000827020008BC
:1000800027020008270200082702000827020008AC
:10009000270200082702000827020008270200089C
:1000A000270200082702000827020008270200088C
:1000B00027020008270200080D6A0008270200082E
:1000C000270200082702000827020008270200086C
:1000D00027020008A98F0008D59100083592000872
:1000E000270200082702000827020008270200084C
:1000F000270200082702000827020008270200083C
:100100002702000827020008016B000827020008E8
:10011000C573000881740008D56B0008D56C000811
:10012000270200082702000827020008270200080B
:1001300000F002F800F05AF80AA090E8000C82449F
:100140008344AAF10107DA4501D100F04FF8AFF27C
:10015000090EBAE80F0013F0010F18BFFB1A43F0A5
:100160000103184768560200885602000A444FF0FF
:10017000000C10F8013B13F0070408BF10F8014B06
:100180001D1108BF10F8015B641E05D010F8016B4B
:10019000641E01F8016BF9D113F0080F1EBF10F8AF
:1001A000014BAD1C0C1B09D16D1E58BF01F801CBD2
:1001B000FAD505E014F8016B01F8016B6D1EF9D555
:1001C0009142D6D37047000000230024002500266A
:1001D000103A28BF78C1FBD8520728BF30C148BFAA
:1001E0000B6070471FB51FBD10B510BD00F050F873
:1001F0001146FFF7F7FF0AF0EFF800F06EF803B4CE
:10020000FFF7F2FF03BC00F075F8000009488047D3
:1002100009480047FEE7FEE7FEE7FEE7FEE7FEE7E8
:10022000FEE7FEE7FEE7FEE704480549054A064B00
:100230007047000009690008310100083874002087
:10024000387A0020387600203876002010B5431C1C
:1002500002E010F8011B71B18107FAD14FF00132B1
:1002600002C88C1A8C4314EAC211F9D0C01A0A06CB
:1002700003D0C01E10BDC01A10BD0A0401D0801EDC
:1002800010BD0902FCD0401E10BD7047704770477A
:10029000754600F02BF8AE4605006946534620F03F
:1002A0000700854618B020B5FFF7BEFFBDE8204027
:1002B0004FF000064FF000074FF000084FF0000B22
:1002C00021F00701AC46ACE8C009ACE8C009ACE8D5
:1002D000C009ACE8C0098D46704710B50446AFF3BD
:1002E00000802046BDE81040FFF789BF00487047F6
:1002F000D873002001491820ABBEFEE7260002009B
:10030000704700002DE9F041012198B0084605F042
:10031000AFFB484E304600F02FFB4748009047485F
:1003200001A90024022581E831008020CDE90440A4
:100330004000069080000790202008900002CDE940
:1003400009046946304600F089FB0121304600F07F
:1003500008FB00F089F80121084605F095FB40F202
:10036000DC567000ADF85400ADF850604FF0804896
:10037000ADF85240ADF8564014A9404606F0BCFE18
:100380006020ADF840000127ADF84270ADF846603E
:10039000ADF8485010A9404606F062FE012148021F
:1003A00005F08AFBA80305F059FB8DF830700B941B
:1003B0008DF831404FF4C020CDE90D041E4C8DF86E
:1003C0003C504C3C0BA9204600F072F8052301225A
:1003D0000A21204600F090F8052302220C21204635
:1003E00000F08AF80121204600F034F8012120466F
:1003F00000F026F84FF4167009F09AFC204600F041
:10040000B5F8204600F04DF80028FAD1204600F05B
:10041000BCF8204600F03EF80028FAD10121204621
:1004200000F0A9F80121404606F039FD18B0BDE8FA
:10043000F0810000080002404C2401401800002018
:100440000029816802D041F0010101E021F00101A1
:10045000816070470029816802D041F4807101E019
:1004600021F480718160704708B50121102005F0EA
:1004700023FB0520ADF8000003208DF802000020CA
:100480008DF803006946024801F05EFA08BD0000DD
:1004900000100140014600208968490700D501206D
:1004A0007047014600208968090700D50120704780
:1004B00010B542680E4B0C791A400B6842EA0422D0
:1004C0001343436083680B4A1340D1E9024222433D
:1004D0004C7943EA44031A438260C26A097C22F4DD
:1004E0007002491EC9B242EA0151C16210BD00004A
:1004F000FFFEF0FFFDF7F1FF70B5072409290AD9C7
:10050000C568A1F10A0606EB4606B440A543B34010
:100510001D43C56007E0056901EB4106B440A543F2
:10052000B3401D4305611F23072A09D2446B521EA5
:1005300002EB820293409C4391400C43446370BDA4
:100540000D2A09D2046BD21F02EB820293409C4316
:1005500091400C43046370BDC46A0D3A02EB820201
:1005600093409C4391400C43C46270BD816841F04C
:100570000801816070470029816802D041F4A00120
:1005800001E021F4A00181607047816841F004011D
:1005900081607047F0B507461C4615460E462A2076
:1005A00009F0CCF9380A09F009FAF8B209F006FAAC
:1005B000300A09F003FAF0B209F000FA2B2009F032
:1005C000BDF9280A09F0FAF9E8B209F0F7F9200AAA
:1005D00009F0F4F9E0B209F0F1F9BDE8F0402C209F
:1005E00009F0ACB908B50121102005F065FA022028
:1005F000ADF8000004208DF803006946014801F0C1
:10060000A3F908BD0010014010B5012005F06CFAF7
:10061000BDE81040002005F067BA000008B50249A7
:1006200008440090008808BD006C004008B5024AEC
:1006300010440090016008BD006C004030B52B4CA8
:100640002078002850D02A4800252A492570408863
:10065000896880088B074FF6FF714FF064020CD554
:1006600040F2B22398421AD9A0F2B22080B200EB35
:10067000800001EA4000C0080CE0B0F5277F0ED3EF
:10068000A0F29B2080B200EB800001EA400009212B
:10069000B0FBF1F0E080642802D9E28000E0E58060
:1006A000154AE078A1791154401CC0B2E0700A28C4
:1006B00000D3E57003220A210F4809F047FA01210F
:1006C000A080462801D9042006E0282801D903206B
:1006D00002E00A2802D90220A07004E0022801D911
:1006E000A17000E0A570617030BD00006A000020BC
:1006F0001800002000100140060200202DE9F843F8
:10070000254C6078002843D0002060702348806822
:10071000234E244D8007318840F20D374FF48778FF
:1007200040F203190A460AD529881F4800F0B8F894
:100730001D49384600F080FB88B1288808E01A4837
:1007400000F0AEF81849384600F076FB38B1308832
:1007500000901C230C224146484600F09FF9A078E7
:10076000C0B132882988104800F09AF8A0780E4964
:1007700000F20D3000F060FB002809D028880090BE
:100780001C230C2240F235114FF48A7000F086F9D8
:10079000BDE8F8830BF03EF86A000020001001402D
:1007A00088010020860100200872002006F0A4B80D
:1007B0007CB504460121080505F066F901211120E8
:1007C00005F07AF94FF48050ADF8000003208DF861
:1007D000020018208DF803006946244801F0B4F89F
:1007E0000420ADF8000048208DF803006946204839
:1007F00001F0AAF835208DF8040000208DF80500DE
:1008000001218DF806108DF8071001A802F0C2FA38
:10081000200123F059FE0146164823F03FFD05460E
:1008200023F01AFE84B2204623F04EFE294623F020
:100830005FFF042124F00DF823F00EFE4FF6FF7148
:1008400001EA04110C4C08442081A08942F20C01F9
:100850000843A081012240F22551204608F0B6FD50
:100860000121204608F0A8FD7CBD000000100140D9
:10087000001401404054094C00500040002909D0A8
:10088000054A0023D372117010620448818941F037
:100890004001818170470000B400002000500040FA
:1008A0002DE9F04387B0894605461446134605AA4C
:1008B00004A903A801F07CFB4B4602AA01A96846E3
:1008C00001F076FBBDF80000BDF80C10401AADF841
:1008D0000000BDF80400BDF81010401AADF8040087
:1008E000BDF80800BDF81410401AADF808002C80BF
:1008F0005FF00104BDF80000BDF80C10604301EB8F
:10090000101023F0E1FD8046BDF80400BDF8101082
:10091000604301EB101023F0D7FD0646BDF8080038
:10092000BDF81410604301EB101023F0CDFD23F04F
:1009300077FD07B2304623F073FD06B2404623F040
:100940006FFD00B23A46314601F024FB25F8140051
:10095000641CE4B20F2CCDD3A5F81E9007B0BDE8FF
:10096000F0830029016802D041F0010102E04FF656
:10097000FE7211400160704701684FF6FE7211402F
:1009800001600021016041608160C1603149314AEC
:100990000839904203D1486840F00F0006E02D4A24
:1009A0001432904204D1486840F0F000486070472B
:1009B000284A2832904203D1486840F47060F5E735
:1009C000244A3C32904203D1486840F47040EDE73D
:1009D000204A5032904203D1486840F47020E5E745
:1009E0001C4A6432904203D1486840F47000DDE74D
:1009F000184A7832904203D1486840F07060D5E7D9
:100A0000154A111F904203D1086840F00F0006E01C
:100A1000114A1432904204D1086840F0F000086096
:100A200070470D4A2832904203D1086840F4706044
:100A3000F5E7094A3C32904203D1086840F470401F
:100A4000EDE7054A50329042EAD1086840F4702040
:100A5000E5E70000080002400804024030B50368E2
:100A600047F6F07293430C6A8A682243D1E9044541
:100A70002C4322438C692243CC6922434C6A224393
:100A80008C6A22431A430260CA6842600A68826024
:100A90004968C16030BD704705F02EBF2DE9F047B1
:100AA0000E46DDF820901F4615460446B04201D997
:100AB0000C460646BD4201D91D4617463B462A460E
:100AC00031462046FFF766FDA8464FEA192A0EE098
:100AD000254606E009F0FF01504608F04BFF6D1C6B
:100AE000ADB2B542F6D908F101001FFA80F8B84559
:100AF000EED9BDE8F08700002DE9FC5F6E484FF0AD
:100B00000A0B4FF00C0900784FF02E0AF0B30021C9
:100B10006A48012200EB0113491C89B21A730B29A0
:100B2000F8D3A0F808B0A0F8189012220285142279
:100B300002871822A0F848202622A0F85820282250
:100B4000A0F86820A0F878A03223A0F888303823D5
:100B5000A0F8983050234946A0F8A83041810F21D1
:100B6000418315214185172141871D21A0F84A1095
:100B70005246A0F85A203121A0F86A103721A0F877
:100B80007A103B21A0F88A10442100E006E0A0F88A
:100B90009A106621A0F8AA10BDE8FC9F0025DFF896
:100BA0001C8101262F4600BF08EB0514C5EBC501CB
:100BB00041F21E702673084407226946276008F038
:100BC0003BFD9DF800009DF80110DFF8F4C001EB3B
:100BD00000209DF8021001EB002020609DF803200A
:100BE0004FF6FF719DF8043001EA02221A4493B2D5
:100BF000A3809DF8052001EA02219DF806201144FA
:100C000089B2A0F5A042E18062450DD2B3F5A07F84
:100C10000AD2B1F5F07F07D20622694608F00CFD32
:100C20009DF80100042801D0267303E02773206893
:100C3000801D20606D1CADB20B2DB5D3A8F808B097
:100C4000A8F818901222A8F828201422A8F8382012
:100C50001822A8F848202622A8F858202822A8F808
:100C600068204046A8F878A03223A0F888303823BE
:100C7000A0F8983050234946A0F8A83041810F21B0
:100C8000418315214185172141871D21A0F84A1074
:100C90005246A0F85A203121A0F86A103721A0F856
:100CA0007A103B21A0F88A104421A0F89A106621FE
:100CB000A8F8AA1070E700004D000020287200205C
:100CC00000B03F0070B508F099FC0025134C1528C2
:100CD00006D008F093FC162802D025700120607021
:100CE00008F08CFC182806D008F088FC152801D1E3
:100CF0002070657070BD182020706570032008F0AA
:100D0000DBFCC007F6D106484FF400440460B7206E
:100D100008F0FCFD0248001F046070BD4C0000207C
:100D2000140C01402DE9F047414F404807F13005D0
:100D30000024007805F1600A4FF6FF79A5F55D788B
:100D4000A5F54E7630B30020524649463C5425F86E
:100D5000104022F81010401C80B23028F6D33549DC
:100D600000204246CD890C8A5FF0010100EB400370
:100D700002EB430702F813107D80BC8006F81310C5
:100D800006EB4303401C5D8080B29C800A28EDD3B3
:100D9000BDE8F08730222649002008F04DFC387865
:100DA0000A2800D93C70387E0A2800D93C762049B0
:100DB00060223031302008F03FFC1D496022903124
:100DC000902008F039FC002051464A4635F8103092
:100DD00031F81070BB4203D125F8104021F81020E3
:100DE000401C80B23028F1D30024F0274FEA0805D8
:100DF00004EB440005EB400107EB4000062208F03D
:100E00001BFC641CA4B20A2CF2D300244FF4967588
:100E100004EB440006EB400105EB4000062208F01D
:100E20000BFC641CA4B20A2CF2D3B1E74D000020E5
:100E3000187100207C0100202DE9FF478A463449C3
:100E40000978E9BBC0EBC000072202A900F5B47025
:100E500008F0F2FB9DF808009DF809104FF6FF75A9
:100E600001EB00209DF80A1001EB00249DF80B0017
:100E70009DF80C1005EA0020084486B29DF80D008C
:100E80009DF80E1005EA0020084487B22149A4F518
:100E9000A040884228D24FF4A078464524D24FF48F
:100EA000F0794F4520D2062202A9204608F0C4FB63
:100EB0009DF80A009DF80B1005EA0020084400E0A8
:100EC00012E082B29DF80C009DF80D1005EA00209A
:100ED000084483B2424507D84B4505D89DF8090020
:100EE000042805D010280BD0012004B0BDE8F087FD
:100EF000A41DCDE9004A3946304601F099FC05E0D1
:100F0000083439463046009401F0DEFC0020ECE75E
:100F10004D00002000B03F0070B505464FF430266C
:100F2000304600F059F8042811D1094C206940F0EE
:100F3000020020616561206940F040002061304678
:100F400000F04AF8216941F6FD721140216170BD3F
:100F50000020024008490420CA68D20701D00120BD
:100F60007047CA68520701D502207047C968C90690
:100F7000FBD50320704700000020024002480169B1
:100F800041F080010161704700200240F0B5064643
:100F90004FF400570D46384600F01EF804280CD1D7
:100FA000064C206940F0010020613580384600F091
:100FB00013F82169BA1E11402161F0BD00200240E2
:100FC0000348024941600349416070472301674576
:100FD00000200240AB89EFCD00B50346FFF7BAFF12
:100FE00003E000BFFFF7B6FF5B1E012803D0002B14
:100FF00000D1052000BD002BF4D1FAE72DE9F05F08
:10100000FE49FF4A00204FF4B37300BF31F8024B92
:1010100022F81040401C80B29842F7D3F8480125CE
:101020000024007898B100F09FFAF548817911B159
:10103000012900D08571437BF249F3484FF6FF72D6
:101040000BB1012B7DD00A800480BDE8F09FEC48F5
:101050004FF00B0E41780E2901D380F801E0817822
:10106000012900D985708179012900D9857101791B
:10107000042900D904714179012900D94471C17949
:1010800009B1FF2900D1C571017A012900D9047283
:10109000417A082900D94472817A012900D98472E1
:1010A000C17A012900D9C472B0F89811642902D913
:1010B0002821A0F89811B0F89A114FF46172B1F597
:1010C000966F6BD8E1B300BFB0F89C214FF4FA766D
:1010D000B2F57A7F01D9A0F89C61B0F89E214FF05B
:1010E0003C0AB2F57A7F01D9A0F89EA1B0F8A01110
:1010F0004FF49677B422B94253D8E9B3017B1E2945
:1011000000D90473417B012900D944738146007AD8
:101110004FF0140B88B300224FF0020C132309EB9D
:1011200002014846897B192941D30246032102F86E
:101130000E5F82F801C091700421D170052101E099
:101140002CE00AE2117106215171072191710821E9
:10115000D171092111720A21517282F80AE00C2121
:10116000D1720D2111730E2151730F219173102132
:10117000D1731121117401E013E015E012215174B3
:10118000937482F813B0152111751621517517212A
:1011900091751821D17589F826500CE0A0F89A2194
:1011A00092E7A0F8A021A9E706F0BAFA75E0521C70
:1011B00092B2192AB3D3002200EB0208014698F834
:1011C0002880B8F1190F31D300F8285F1822427037
:1011D000857080F803C00322027104224271052247
:1011E00082710622C271072202720822427209220B
:1011F00082720A22C27280F80CE00C2242730D2225
:1012000082730E22C2730F220274102242741122C2
:1012100082741222C274037580F815B0152282758B
:101220001622C275172281F8402003E0521C92B2A8
:10123000192AC1D300200A1892F84220192A28D36B
:1012400001F8425F032081F801C088700420C87053
:10125000052008710D2048718871C87108724872A4
:101260008872C87208730E2048730F208873182084
:10127000C87311220A7412224A748B7481F813B055
:1012800015220A7516224A7517228A75C8750D76B9
:1012900003E0401C80B21928CDD300214FF4157310
:1012A0004FF00A0E4FEA090000EB4102B2F85CC0B1
:1012B000ACF1050C9C4501D3A2F85CE0491C89B255
:1012C0001929F1D3B0F88E10642911D8B0F8901014
:1012D000C8290DD8B9F892204946BA4208D8B1F8C1
:1012E0009420B2F5C87F03D8B9F89610B1420ED950
:1012F0002321A0F88E104B21A0F890107321A0F8A4
:1013000092109621A0F89410FA21A0F89610B0F847
:10131000B0204FF4FA6C41F28831624508D8B0F839
:10132000B2208A4204D8B0F8B4204B009A4207D9C0
:101330004FF47A72A0F8B020A0F8B2C0A0F8B410B0
:10134000B0F8EC8032236422C821B8F1640F12D8BF
:10135000B0F8EE80B8F1C80F0DD8B0F8F080814633
:10136000B84508D8B9F8F280B8F5C87F03D8B0F806
:10137000F480B0450BD9A0F8EC30A0F8EE204FF087
:101380009608A0F8F080A0F8F210A0F8F470B0F879
:101390000E81B8F1640F12D8B0F81081B8F1C80FFF
:1013A0000DD8B0F812818146B84508D8B9F8148133
:1013B000B8F5C87F03D8B0F81681B0450AD9A0F8AF
:1013C0000E31A0F810219623A0F81231A0F81411C4
:1013D000A0F81671B0F8C6304FF47A794B4509D8A9
:1013E000B0F8C830634505D8B0F8CA3040F6B83810
:1013F00043450FD9A0F8C62008E0000000F8030814
:101400004C6E00208A0100208C010020A0F8C8103A
:10141000A0F8CA70B0F8DC204A4503D8B0F8DE2046
:10142000624505D9A0F8DC604FF44872A0F8DE20D0
:10143000B0F83C317822B34203D8B0F83E31B34221
:1014400003D9A0F83CA1A0F83E21B0F84C31B3423A
:1014500003D8B0F84E31B34203D9A0F84CA1A0F89C
:101460004E21B0F85C31B34203D8B0F85E31B342DC
:1014700004D9A0F85CA1FA23A0F85E31B0F86C3171
:10148000B34203D8B0F86E31B34203D9A0F86C214F
:10149000A0F86E11B0F8902140F22F410A3A8A422A
:1014A00001D3A0F89041B0F8923140F24F220A3BAC
:1014B000934201D3A0F892E1B0F894310A3B8B42F9
:1014C00001D3A0F894E1B0F896110A39914201D302
:1014D000A0F896412249D0F884224FF07E53561846
:1014E000204A964201D3C0F88432D0F88862314451
:1014F000914201D3C0F88832B0F8C612B1F5EB7F43
:1015000001D9A0F8C64290F8C012142901D280F87F
:10151000C0B290F8C112491E0C2902D3062180F8EE
:10152000C11290F8C212491E1F2901D380F8C2527D
:1015300090F8C3123B2902D90C2180F8C31290F80D
:10154000C4123B2901D980F8C44290F8C5123B2946
:101550007FF66BAD80F8C54267E50C80028074E5CC
:10156000333333C23433FB042DE9F047DB4C002521
:101570000B20257060700127A7703C20E070277158
:101580006571A77108206072E7712572A772E57214
:10159000257304F80D7F0A26A4F88171A4F88351FD
:1015A000A4F88561A4F88761A4F889512D20A4F8D6
:1015B0008B014FF46170A4F88D014FF4FA70A4F818
:1015C0008F013C20A4F89101B420A4F893014F347A
:1015D00006F0A6F807F0C0FB26806680A680E680AD
:1015E00026816681A681E68126826682A682E682BF
:1015F00026836683A683E68326846684A684E6849F
:1016000026856685A685E6852686232060864B206E
:10161000A0867320E08696222287FA206087A5871D
:10162000E587A4F84050A4F84250A4F8445024F8A8
:10163000465F4FF4F06060804FF28070A0804FF200
:10164000C030E0804FF2FE1020814FF20F09A4F865
:101650000A904FF47040A0814FF47A70E08140000E
:10166000208241F288306082A582E582258324F8B9
:101670001A5F4FF4F06060804FF28070A0804FF2EC
:10168000C030E0804FF47040208164236381C82023
:10169000A0814FF4967CA4F80EC025826582A582B5
:1016A00024F8165F4FF4F06161804FF2C031A180E1
:1016B0004FF2FE11E1804FF4704121814FF4FA7135
:1016C00061818100A181E581258224F8125F4FF4B8
:1016D000F06161804FF2C031A1804FF47041E18030
:1016E000322121816381A281E081A4F810C065824A
:1016F000A582E58225836583A5834FF4F068A4F86D
:101700001E804FF28078A4F820804FF2C038A4F8F1
:1017100022804FF2FE18A4F82480A4F826904FF4FB
:101720007048A4F828806185A385E2852086A4F806
:1017300032C0A586E58625876587A58724F83E5FA4
:101740004FF4F06262804FF28072A2804FF2C0329A
:10175000E2804FF2FE122281A4F80A904246A28152
:10176000E581258224F8125F521162804FF2807267
:10177000A2804246E2803C222281782262811301CB
:10178000A3814FF28073E381530223824FF6FF73EC
:101790006382A382E3823C23238324F81A2F13015C
:1017A00063804FF28073A3805302E3804FF6FF7390
:1017B00023816381A3813C23E381FA2323821301E4
:1017C00063824FF28073A3825302E3824FF6FF736A
:1017D00023836383A383E28324F8200F10016080B6
:1017E0004FF28070A0805002E08023816381A3814A
:1017F0000220E0812682282060824620A0824FF4C9
:101800007842E28222834FF6E07060834FF4FC60FE
:10181000A083E08384F8267184F8275184F8287126
:1018200084F82951442084F82A01392084F82B01B6
:101830005F2784F82C7184F82D11302084F82E0154
:1018400084F82F1184F83001312384F8313184F881
:10185000320184F833014FF0390C84F834C184F834
:10186000353184F8361184F8370184F8380184F86A
:10187000390184F83A0184F83B7184F83C0184F81A
:101880003D0184F83E0184F83F3184F8405184F8EA
:1018900041514FF4E970A4F85801A4F85A211420DA
:1018A00084F8520184F853610F2084F854010C200D
:1018B00084F8550184F8565184F857514FF07E5101
:1018C000C4F816110648C4F81A01C4F81E110548D8
:1018D000C4F82201BDE8F04700F006B84C6E0020C5
:1018E000ADFC843FC45979422DE9F041144D72B6E4
:1018F000FFF766FB2846FFF70FFB042805D0FFF72C
:101900003DFB62B60120BDE8F0810E4E00244FF48D
:10191000B37700BF36F814102846FFF737FB0428CA
:1019200004D0FFF72BFB62B60220ECE7641CA4B2E4
:10193000AD1CBC42EED3FFF721FB62B60020E2E70C
:1019400000F803084C6E0020F0B5CA78002502F0BC
:101950000F03D20601D58A7813430A784FF00F0E91
:1019600012F0FF0F4FF001021CD004680F8802FA3A
:1019700005F63740B74211D14FEA850C0EFA0CF745
:1019800024EA070703FA0CF43C43CF78282F02D04F
:10199000482F02D002E0466100E006616D1C082D70
:1019A000E4D304600C88FF2C1ED944685FF0000665
:1019B00006F1080702FA07F50F882F40AF420FD152
:1019C0004FEA860C0EFA0CF7BC4303FA0CF73C43C3
:1019D000CF78282F00D14561CF78482F00D10561FD
:1019E000761C082EE4D34460F0BD0161704700000E
:1019F0002DE9F0416F4C06466C4F6D4DB4F8E20195
:101A000022F062FD294622F049FC314622F070FDA9
:101A100002D2B4F8CC01C2E0B4F8E00122F054FDE7
:101A2000294622F03BFC314622F062FD07D23046C7
:101A3000D4F8581222F090FDD4F88012A9E0B4F83E
:101A4000DE0122F041FD294622F028FC314622F039
:101A50004FFD07D23046D4F8541222F07DFDD4F861
:101A60007C1296E0B4F8DC0122F02EFD294622F02B
:101A700015FC314622F03CFD07D23046D4F8501216
:101A800022F06AFDD4F8781283E0B4F8DA0122F08B
:101A90001BFD294622F002FC314622F029FD07D227
:101AA0003046D4F84C1222F057FDD4F8741270E08E
:101AB000B4F8D80122F008FD294622F0EFFB3146A8
:101AC00022F016FD07D23046D4F8481222F044FD29
:101AD000D4F870125DE0B4F8D60122F0F5FC294686
:101AE00022F0DCFB314622F003FD07D23046D4F869
:101AF000441222F031FDD4F86C124AE0B4F8D4015B
:101B000022F0E2FC294622F0C9FB314622F0F0FC2B
:101B100007D23046D4F8401222F01EFDD4F86812E5
:101B200037E0B4F8D20122F0CFFC294622F0B6FB10
:101B3000314622F0DDFC07D23046D4F83C1222F0C8
:101B40000BFDD4F8641224E0B4F8D00122F0BCFC00
:101B5000294622F0A3FB314622F0CAFC07D23046C8
:101B6000D4F8381222F0F8FCD4F8601211E0B4F87E
:101B7000CE0122F0A9FC294622F090FB314622F04A
:101B8000B7FC0AD23046D4F8341222F0E5FCD4F87F
:101B90005C12BDE8F04122F00DBBB4F8B80122F0B0
:101BA00093FC3946BDE8F04122F078BB0000C84202
:101BB00000007A444C6E00202DE9F0410246594C59
:101BC0000020A2426FDD58498A4205DA21461046BC
:101BD00022F098FD55499EE0554EB24207DA104674
:101BE00022F090FD534922F059FB53497EE05349BE
:101BF0008A4212DA104622F0B1FA0022504B22F04B
:101C0000C3F900224F4B21F0F9FE00224E4B21F088
:101C10004DFEBDE8F04121F017BE4C4D4C4FAA429D
:101C200004DA104622F06EFD4A4950E04A488242EA
:101C300008DA2946104622F065FD394622F02EFBCF
:101C4000464953E04649DFF81C818A4208DA0146DA
:101C5000104622F057FD314622F020FB414645E078
:101C60004148424F824207DA104622F04BFD394686
:101C700022F014FB214639E03D498A4208DA014648
:101C8000104622F03FFD394622F008FB39492DE08D
:101C90003948824208DA104622F034FD414622F0EB
:101CA000FDFA314622E03AE034498A4208DA014638
:101CB000104622F027FD414622F0F0FA294615E0B1
:101CC0002F48824207DA104622F01CFD414622F0DE
:101CD000E5FA39460AE02B498A420BDA01461046FA
:101CE00022F010FD414622F0D9FA2749BDE8F04123
:101CF00022F060BA2548824201DA25490AE02548E7
:101D0000824201DA244905E02448824201DA24496A
:101D100000E024491046BDE8F04122F0BFBABDE81A
:101D2000F0810000000070420000994200008441F0
:101D30000000A04200006040000020410000AA42D4
:101D40000000544000001440000034400000B44241
:101D50000000F0410000A0400000F04200002042DE
:101D60000000484300004842000096430000C8427B
:101D70000000C84300008C420000E1430000FA4329
:101D800000800944000016440000DC420080224428
:101D900085EB894000004844A4703D400000614448
:101DA000AE47C13F14AEC73F0749B1F85C2182423C
:101DB00001D300207047B1F85E11814201D30120A8
:101DC00070470220704700004C6E00200749B1F8B0
:101DD0006C21824201D300207047B1F86E1181421C
:101DE00001D3012070470220704700004C6E002094
:101DF0000749B1F83C21824201D300207047B1F875
:101E00003E11814201D3012070470220704700003B
:101E10004C6E00200749B1F84C21824201D30020CA
:101E20007047B1F84E11814201D301207047022062
:101E3000704700004C6E00201049B1F8EC2082423F
:101E400001D300207047B1F8EE20824201D3012077
:101E50007047B1F8F020824201D302207047B1F8F8
:101E6000F220824201D303207047B1F8F41081427E
:101E700001D3042070470520704700004C6E0020FD
:101E80001049B1F80E21824201D300207047B1F809
:101E90001021824201D301207047B1F81221824201
:101EA00001D302207047B1F81421824201D30320EC
:101EB0007047B1F81611814201D304207047052004
:101EC000704700004C6E00200A49B1F8B0208242F1
:101ED00001D300207047B1F8B220824201D3012023
:101EE0007047B1F8B410814201D30220704703203B
:101EF000704700004C6E00200A49B1F8C6208242AB
:101F000001D300207047B1F8C820824201D30120DC
:101F10007047B1F8CA10814201D3022070470320F4
:101F2000704700004C6E00201049B1F88E208242AC
:101F300001D300207047B1F89020824201D30120E4
:101F40007047B1F89220824201D302207047B1F865
:101F50009420824201D303207047B1F89610814249
:101F600001D3042070470520704700004C6E00200C
:101F70000749B1F8DC20824201D300207047B1F854
:101F8000DE10814201D3012070470220704700001B
:101F90004C6E00204FF6FF7303EA801001F03F0102
:101FA000084403EA401002F01F01084480B2704761
:101FB00010B5DC0A0480C3F34510088003F01F004D
:101FC000108010BD2DE9F0416F4C06466C4F6D4DF1
:101FD000B4F8E20122F078FA294622F05FF931469E
:101FE00022F086FA02D2B4F8B601C2E0B4F8E001F9
:101FF00022F06AFA294622F051F9314622F078FAA5
:1020000007D23046D4F8081222F0A6FAD4F83012DB
:10201000A9E0B4F8DE0122F057FA294622F03EF991
:10202000314622F065FA07D23046D4F8041222F085
:1020300093FAD4F82C1296E0B4F8DC0122F044FABA
:10204000294622F02BF9314622F052FA07D23046C7
:10205000D4F8001222F080FAD4F8281283E0B4F801
:10206000DA0122F031FA294622F018F9314622F03D
:102070003FFA07D23046D4F8FC1122F06DFAD4F8BA
:10208000241270E0B4F8D80122F01EFA294622F09A
:1020900005F9314622F02CFA07D23046D4F8F8116F
:1020A00022F05AFAD4F820125DE0B4F8D60122F0FA
:1020B0000BFA294622F0F2F8314622F019FA07D23B
:1020C0003046D4F8F41122F047FAD4F81C124AE052
:1020D000B4F8D40122F0F8F9294622F0DFF83146AD
:1020E00022F006FA07D23046D4F8F01122F034FA82
:1020F000D4F8181237E0B4F8D20122F0E5F92946F5
:1021000022F0CCF8314622F0F3F907D23046D4F869
:10211000EC1122F021FAD4F8141224E0B4F8D00122
:1021200022F0D2F9294622F0B9F8314622F0E0F93E
:1021300007D23046D4F8E81122F00EFAD4F8101283
:1021400011E0B4F8CE0122F0BFF9294622F0A6F83A
:10215000314622F0CDF90AD23046D4F8E41122F00B
:10216000FBF9D4F80C12BDE8F04122F023B8B4F822
:10217000A20122F0A9F93946BDE8F04122F08EB85B
:102180000000C84200007A444C6E00202E4910B571
:10219000884201DB002010BD2C49884204DD2C4917
:1021A00022F0DAF92B494BE02B49884204DD2B4918
:1021B00022F0D2F92A4943E02A49884204DD2A491B
:1021C00022F0CAF929493BE02949884204DD29491E
:1021D00022F0C2F9284933E02849884204DD284921
:1021E00022F0BAF927492BE02749884204DD274924
:1021F00022F0B2F9264923E02649884204DD264927
:1022000022F0AAF925491BE02549884204DD254929
:1022100022F0A2F9244913E02449884204DD24492C
:1022200022F09AF923490BE02349884204DD23492F
:1022300022F092F9224903E0224922F08DF9224945
:10224000BDE8104022F054BA48E1884300000C4237
:10225000D4BD8339C6E18C3DE17AC641C7A0803A3E
:102260000039C13DEC51B041C095EC3BC286873E80
:102270004C3798415B94D93B7958883E5EBA71419E
:10228000D2E3773C5BD3DC3E6ABCD040F19D983C06
:102290004694F63EB6F3454077D66E3D94873D3F73
:1022A000CDCCDC3F27C2063E508D773FCDCC8C3F56
:1022B000A69BC43D48507C3F3BDF6F3F9A77BC3EB6
:1022C0009A77A43F711BD53F000020407CB504469F
:1022D0000121C80403F0D8FB0121112003F0ECFB1D
:1022E0004FF48060ADF8000003208DF80200182044
:1022F000274D8DF8030069462846FFF725FBE814B3
:10230000ADF8000048208DF8030069462846FFF725
:102310001BFB34208DF8040000208DF805000121FE
:102320008DF806108DF8071001A800F033FD20018C
:1023300022F0CAF80146174821F0B0FF054622F006
:102340008BF884B2204622F0BFF8294622F0D0F95B
:10235000042122F07EFA22F07FF84FF6FF7101EAA5
:10236000041108440C490880081D018842F20C023F
:1023700011430180084C0122083C40F225512046BF
:1023800007F024F80121204607F016F87CBD000074
:10239000001001404054094C084C004003490A8891
:1023A0005206FCD50149091D08807047004C0040C9
:1023B00010B50C46034603E013F8010BFFF7EEFFE0
:1023C000641EA4B2F8D2024801884906FCD510BDAB
:1023D000004C004004F090BA10B5CF2007F0AEFAE0
:1023E000002007F0EBFA812007F0E8FA302007F030
:1023F000E5FAED2007F0A2FA642007F0DFFA0320E7
:1024000007F0DCFA122007F0D9FA812007F0D6FA9B
:10241000E82007F093FA852007F0D0FA102007F0A3
:10242000CDFA782007F0CAFACB2007F087FA3920D6
:1024300007F0C4FA2C2007F0C1FA002007F0BEFA1A
:10244000342007F0BBFA022007F0B8FAF72007F0B3
:1024500075FA202007F0B2FAEA2007F06FFA0020A0
:1024600007F0ACFA002007F0A9FAB12007F066FAED
:10247000002007F0A3FA1B2007F0A0FAB62007F00F
:102480005DFA0A2007F09AFAA22007F097FAC02016
:1024900007F054FA212007F091FAC12007F04EFA14
:1024A000132007F08BFAC52007F048FA3F2007F009
:1024B00085FA3C2007F082FAC72007F03FFAB520E2
:1024C00007F07CFA362007F039FA082007F076FA90
:1024D0003A2007F033FA552007F070FAF22007F09F
:1024E0002DFA002007F06AFA262007F027FA0120CB
:1024F00007F064FAE02007F021FA0F2007F05EFAF7
:10250000262007F05BFA242007F058FA0B2007F08A
:1025100055FA0E2007F052FA092007F04FFA54201E
:1025200007F04CFAA82007F049FA462007F046FACF
:102530000C2007F043FA172007F040FA092007F0B3
:102540003DFA0F2007F03AFA072007F037FA00208B
:1025500007F034FAE12007F0F1F9002007F02EFA35
:10256000192007F02BFA1B2007F028FA042007F0A7
:1025700025FA102007F022FA072007F01FFA2A2078
:1025800007F01CFA472007F019FA392007F016FA6D
:10259000032007F013FA062007F010FA062007F0D0
:1025A0000DFA302007F00AFA382007F007FA0F205A
:1025B00007F004FA112007F0C1F9962007F09EFBFE
:1025C000BDE81040292007F0B9B910B5E02007F0A8
:1025D000B5F9002007F0F2F9072007F0EFF9102015
:1025E00007F0ECF9092007F0E9F9172007F0E6F900
:1025F0000B2007F0E3F9402007F0E0F98A2007F00C
:10260000DDF94B2007F0DAF90A2007F0D7F90D20A1
:1026100007F0D4F90F2007F0D1F9152007F0CEF913
:10262000162007F0CBF90F2007F0C8F9E12007F0DA
:1026300085F9002007F0C2F91A2007F0BFF91B2026
:1026400007F0BCF9022007F0B9F90D2007F0B6F940
:10265000052007F0B3F9302007F0B0F9352007F076
:10266000ADF9432007F0AAF9022007F0A7F90A20E4
:1026700007F0A4F9092007F0A1F9322007F09EF92C
:10268000362007F09BF90F2007F098F9B12007F0EA
:1026900055F9A02007F092F9B42007F04FF9022075
:1026A00007F08CF9C02007F049F9172007F086F9E8
:1026B000152007F083F9C12007F040F9412007F009
:1026C0007DF9C52007F03AF9002007F077F90A20D4
:1026D00007F074F9802007F071F9B62007F02EF9A1
:1026E000022007F06BF9362007F028F9482007F0A0
:1026F00065F93A2007F022F9552007F05FF9E92043
:1027000007F01CF9002007F059F9F72007F016F937
:10271000A92007F053F9512007F050F92C2007F0B9
:102720004DF9822007F04AF9112007F007F99620A9
:1027300007F0E4FA292007F001F9BDE81040142061
:1027400007F0DCBA02494CF6CC4008607047000044
:102750000030004000F012B810B545F2555000F0BE
:1027600021F8062000F012F840F2712000F014F871
:1027700000F004F8BDE81040FFF7E4BF02494AF654
:10278000AA200860704700000030004001494860FE
:102790007047000000300040014988607047000029
:1027A00000300040014908607047000000300040E0
:1027B00081070CD16421B0FBF1F201FB120141B998
:1027C0004FF4C871B0FBF1F201FB120008B1002018
:1027D000704701207047000041060748826942F0B7
:1027E000010282610548426822F0E062426042686C
:1027F0000A434260704700000010024000000140A0
:1028000010B500F06FFA00F0A9FA0848807848B1D6
:10281000FFF7DBFE002007F0BDFDBDE8104064209F
:1028200007F06CBAFFF7D8FDF4E700004C6E00200B
:102830002DE9F0479846164601EB0802521E93B266
:102840008219521EDDE9084995B20A462946FDF76C
:10285000A1FE1C494FF4004AC1F800A0032007F074
:1028600055F8C4F3074007F051F8C4F3072007F008
:102870004DF8E0B207F04AF800251AE0002413E012
:1028800007F02AF80109074639F81100C1B2000A19
:1028900007F070F807F00F0139F81100C1B2000A13
:1028A00007F068F8641CA4B2B4EB560FE8D36D1CB3
:1028B000ADB24545E2D30349091FC1F800A0BDE808
:1028C000F0870000140C01402DE9F0471F46164622
:1028D000CA19521E93B28219521E95B20A4629464F
:1028E000089CFDF757FE19494FF40049C1F80090C4
:1028F000032007F00BF8C4F3074007F007F8C4F310
:10290000072007F003F8E0B207F000F800254FF6C3
:10291000FF7A13E000240DE006F0DEFF0AEA00284B
:1029200006F0DAFF404480B2C1B2000A07F022F894
:10293000641CA4B2B442EFD36D1CADB2BD42E9D366
:102940000249091FC1F80090BDE8F087140C01404E
:102950002DE9F05F1E46994C0A9B4D1E04EB0314B3
:10296000152A33D0DFF85CA2954FAAF1040B4FF47F
:102970000049112A4FD0152A4BD2237BA0F1010C1C
:10298000012B76D023895A435708628963449046C5
:102990007A432768174408EB050292B29DB21346AA
:1029A0000A462946FDF7F6FDCAF80090032006F016
:1029B000ADFFC7F3074006F0A9FFC7F3072006F0F5
:1029C000A5FFF8B206F0A2FF0027F3E062892A44CF
:1029D00093B2228900EB5202521E95B20A46294652
:1029E000FDF7D8FD7848002607884FEA17280DE044
:1029F000002505E0F9B2404606F0BCFF6D1CADB203
:102A00002089B5EB500FF5D3761CB6B26089B04281
:102A1000EED8BDE8F09F237B012B2BD02389D4F87F
:102A200000C05A43570862895743674403EB430C7D
:102A30004FEADC0CACEBD30300EB43035B1E1FFA45
:102A400083FC2A4493B20A466146FDF7A3FDCAF807
:102A50000090032006F05AFFC7F3074006F056FF28
:102A6000C7F3072006F052FFF8B206F04FFF002729
:102A70005CE062E062892A4493B2228900EB520250
:102A8000521E95B20A462946FDF784FD3F8800266E
:102A90004FEA17280DE0002505E0F9B2404606F0A0
:102AA00069FF6D1CADB22089B5EB500FF5D3761CD4
:102AB000B6B26089B042EED8ABE7002504E000BFB3
:102AC00006F00AFF6D1CADB22089B5EBD00FF7D32D
:102AD000C0F3CC0514E000BF06F0FEFE80460009FE
:102AE00036F81000C1B2000A06F044FF08F00F00EB
:102AF00036F81000C1B2000A06F03CFF6D1CADB202
:102B0000208900EB4000B5EBD00FE5D3208900EB26
:102B10004000C50804E000BF06F0DEFE6D1CADB24B
:102B20002089B5EB500FF7D37F1CBFB26089B84244
:102B3000C3D800BFCBF800906BE762892A4493B2F8
:102B40002289624495B20A462946FDF723FD3F8853
:102B500000264FEA17280CE0002505E0F9B24046B0
:102B600006F008FF6D1CADB22089A842F6D8761C8D
:102B7000B6B26089B042EFD84BE7002514E000BF41
:102B800006F0AAFE8046000936F81000C1B2000A1D
:102B900006F0F0FE08F00F0036F81000C1B2000A8F
:102BA00006F0E8FE6D1CADB22089B5EB500FE7D3FF
:102BB0007F1CBFB26089B842DFD8BBE72872002013
:102BC00086010020140C0140880100202DE9F84303
:102BD00005461048089F98461446894600EB07169C
:102BE0000EE04346494628460097FFF7B1FE20789D
:102BF00015280AD0112808D03089284485B2641CD1
:102C00002278162AEDD3BDE8F883308905EB500011
:102C1000F4E70000287200202DE9F04198461346A1
:102C2000224C01F109025F2B27D203EB830304EB53
:102C3000C30693B2C21D94B20A462146FDF7AAFC10
:102C40000025002416F8017B390938F81100C1B2BB
:102C5000000A06F08FFE07F00F0138F81100C1B22C
:102C6000000A06F087FE641CE4B2042CEAD36D1C53
:102C7000EDB20A2DE5D3BDE8F08193B2C21C94B247
:102C80000A462146FDF786FCB8F800600025370AA1
:102C90000024F1B2384606F06DFE641CE4B2082C44
:102CA000F7D36D1CEDB20A2DF2D3E4E7CE4802084B
:102CB000F0B51E4614460F4605460DE01F2802D902
:102CC0002038C2B200E00022334639462846FFF7DA
:102CD000A3FF0835ADB2641C2078FF2801D000287E
:102CE000ECD1F0BDF8B501211C2002F0E5FEFF207B
:102CF000ADF800001024164E8DF8034003258DF822
:102D0000025069463046FEF71FFEFF213046FEF7AF
:102D10006CFE7020ADF800008DF803408DF8025075
:102D200069460C48FEF710FE3020ADF800008DF823
:102D30000340094C8DF8025069462046FEF704FE18
:102D4000044940201031086020202061F8BD0000B7
:102D5000000C0140000801400010014070B5094D11
:102D600020242C60052006F0C9FF281D04601420D3
:102D700006F0C4FF2C60142006F0C0FF0248046176
:102D800070BD0000100801400010014003F0B4BD08
:102D900003F0B2BD70B50F23C47801780122F4B1FD
:102DA000144C2468457804F4E064C4F5E064240A13
:102DB000C4F10406E3408478B5401C402C4301F183
:102DC000E021230181F80034007800F01F018A40DF
:102DD0004009800000F1E020C0F8002170BD01F042
:102DE0001F0082404809800000F1E020C0F88021E7
:102DF00070BD00000CED00E0024908430249086084
:102E0000704700000000FA050CED00E000290AD030
:102E1000054A00231370D381918110620348018811
:102E200041F04001018070473C0100200C38014016
:102E30007CB5012144F2050002F03EFE4FF4007023
:102E4000ADF8000003208DF8020018204A4C8DF8E0
:102E5000030069462046FEF777FD2015ADF8000017
:102E600048208DF8030069462046FEF76DFD2520B9
:102E70008DF8040000208DF805008DF80600012073
:102E80008DF8070001A8FFF785FF3C484178E1B1C4
:102E900001291DD002291ED003291FD0042920D0CA
:102EA000052921D0062922D0072923D0082924D09A
:102EB000092925D00A2926D04FF4E1300B292AD040
:102EC0000C2923D00D2924D025E04FF4967022E060
:102ED0004FF416701FE04FF496601CE04FF416603C
:102EE00019E04FF4965016E04FF4165013E04FF4EB
:102EF000615010E04FF496400DE04FF416400AE0A8
:102F00004DF6C02007E04FF4614004E04FF4FA3082
:102F100001E04FF47A30000121F0D6FA014618485A
:102F200021F0BCF9054621F097FA84B2204621F041
:102F3000CBFA294621F0DCFB042121F08AFC21F0A8
:102F40008BFA4FF6FF7101EA041108440D4908801D
:102F5000081D018842F20C0211430180094C012234
:102F6000083C40F22551204606F030FA0121204667
:102F700006F022FA7CBD0000000801404C6E0020E3
:102F80004054894C083801402DE9F04FF948FA4D7A
:102F9000FA4CC078A1B0002802F0D580F54B4FF074
:102FA000000A83F803A0187A10287DD0F4494FF066
:102FB000ED0B09880A0AC9B2CDE90B216C2874D03F
:102FC000F04909880A0AC9B2CDE90D216D286DD0F2
:102FD000ED496E2809884FEA112EC9B2019166D0D9
:102FE000EA4909880A0AC9B2CDE905216F287CD0CF
:102FF000E74909880A0AC9B204920991702875D074
:10300000E44971280988C1F30722C9B2CDE9071242
:103010006DD0E14972280988C1F30729C9B267D088
:10302000DE4A1288160AD2B21C96179273287DD0F7
:10303000DB4A1288160AD2B216961992742876D0F4
:10304000D84A752812884FEA122802F0FF0C6FD078
:10305000D54A1288160AD2B213961892762868D0EA
:10306000D24A1288160AD2B21D96119277287CD0C5
:10307000CF4A1288160AD2B21B961092782875D0C1
:10308000CC4A1288160AD2B21E96129279286ED0B5
:10309000C94A1288170AD6B27A2869D0C74A128854
:1030A000130AD2B27B2803E063E277E293E2BFE245
:1030B0007ED07C287DD07D287CD07E287BD0C04AE5
:1030C000C04BAC495E115268802875D0812874D0FD
:1030D000822873D07F2872D0112871D0122870D026
:1030E00013286FD014286ED003E0BEE2DEE2F9E2CE
:1030F00014E304F52F5215281278059204F52F5287
:10310000527801927ED016287DD017287CD01828BE
:103110007BD019287AD01A2879D01B2878D01C287F
:1031200077D01D2876D01E2875D003E012E32CE35B
:1031300046E362E31F286FD020286ED021286DD08F
:1031400022286CD023286BD024286AD0252869D067
:10315000262868D004F52F598E4699F8001099F862
:10316000012002EB01218AB203E064E37EE398E3ED
:10317000B2E399F80310049199F80230069301EB39
:10318000032199F80530089399F80470079703EB29
:10319000072399F8077099F806C089B207EB0C2746
:1031A0001FFA87F89BB299F8097099F808C00BE0EC
:1031B000B2E3CDE3FEE3FEE3FEE3FEE3FEE3FEE384
:1031C000FEE3FEE3FEE3FEE307EB0C271FFA87F9BD
:1031D00027287DD004F52F5C28289CF80B709CF8DC
:1031E0000AC007EB0C271FFA87FE72D0614F29280F
:1031F00070D02A286FD02B286ED02C286DD02D2887
:103200006CD011E0FEE3FEE3FEE3FEE3FEE3FEE34B
:10321000FEE3FEE3FEE3FEE3FEE3FEE3FEE3FEE3A6
:10322000FEE3FEE3FEE3FEE32E287DD02F287CD0D4
:1032300030287BD031287AD0322879D0332878D002
:10324000342877D0352876D0362875D0372874D0F2
:10325000382873D0392872D03A2871D03B2870D0E2
:103260003C286FD03D286ED03E286DD03F286CD0D2
:1032700040286BD041286AD0422869D0432868D0C2
:10328000442867D0452866D0462865D0472864D0B2
:10329000482863D0492862D04A2861D04B2860D0A2
:1032A0004C285FD04D285ED04E285DD04F285CD092
:1032B00050285BD051285AD0522859D004F52F57A6
:1032C0007F7B0C9704F52F5797F80CC00C9F06E0F6
:1032D000FEE3FEE3FEE3FEE3FEE3FEE3FEE307EBD5
:1032E0000C27BFB20F9704F52F57FF7B0C9704F5FF
:1032F0002F5797F80EC00C9F07EB0C27BFB2109703
:1033000004F52F577F7C0C9704F52F5797F810C0C2
:103310000C9F07EB0C27BFB2119704F52F57FF7CCA
:103320000C9704F52F574FE0FEE3FEE3FEE3FEE3C8
:10333000FEE3FEE3FEE3FEE3FEE3FEE3FEE3FEE385
:10334000FEE3FEE3FEE3FEE3FEE3FEE3FEE3FEE375
:10335000FEE3FEE3FEE3FEE3FEE3FEE3FEE3FEE365
:10336000FEE3FEE3FEE3FEE3FEE3FEE3FEE3FEE355
:10337000FEE300003C0100204C6E002024190020D8
:103380008600002088000020CA000020F6000020EF
:1033900016010020780000207A0000208400002020
:1033A0008A0000208C0000208E0000209000002069
:1033B0009200002094000020960000209800002039
:1033C00090010020E0FF1F0097F812C00C9F5328C7
:1033D00007EB0C27BFB2129704F52F577F7D0C9790
:1033E00004F52F5797F814C00C9F07EB0C27BFB2BA
:1033F0007ED0DFF80CC554287BD055287AD004F550
:103400002F521178D378977803EB0161537892F8B3
:1034100006C01B0403EB072E1379D779714407EB21
:10342000036753791B0403EB0C233B440C93137A7F
:10343000D77A92F80AC007EB0367537A1B0403EBB1
:103440000C233B440E93137BD77B92F80EC007EB03
:103450000363577B3F0407EB0C273B440F93137C1C
:10346000D77C92F812C007EB0367537C1B0403EB75
:103470000C233B441093D37D177D92F816C003EBC9
:103480000767537D1B0403EB0C233B441193D77E4A
:10349000137E92F81AC007EB0363577E3F0407EBD5
:1034A0000C273B441293D37F177F03EB0767537FAF
:1034B0004FEA034C937F0CEB032307EB030992F8CD
:1034C000237092F8203007EB036792F821304FEA1F
:1034D000034C92F822300CEB032307EB030892F81D
:1034E000277092F8243007EB036392F8257002E00E
:1034F000EFE3EFE3EFE392F826203F0407EB02222D
:103500009F1856287CD0FE4A57287AD0582879D060
:10351000592878D05A2877D05B2876D05C2875D087
:103520005D2874D05E2873D05F2872D0602871D077
:10353000612870D062286FD063286ED064286DD067
:1035400065286CD0662801F0B585672801F0C48530
:10355000682801F0D485692801F0E6856A2801F021
:1035600031866B2801F03F86832801F05E8601F0EA
:10357000EABD1A8BB2F5807F0DD8587A997A01EBA3
:103580000020D97A01EB0020B0F5000F03D2DD490D
:1035900006F0E4F868E35A2001F0D3BD188B002848
:1035A000F9D1A5202070FA206070DC20A07084F88A
:1035B00003A022710C99617184F806A0002184F89F
:1035C00007A00220225C401C114480B289B2082866
:1035D000F8D301F025BE188B0028DCD1A52020707F
:1035E000FA206070DD20A07084F803A022710E998B
:1035F000617184F806A0002184F807A002200FE082
:10360000F5E3F5E3F5E3F5E3F5E3F5E3F5E3F5E3FA
:10361000F5E3F5E3F5E3F5E3F5E3F5E3F5E3F5E3EA
:10362000225C401C114480B289B20828E7D3D0E75D
:10363000188B0028AFD1A5202070FA206070DE2002
:10364000A07084F803A084F804E00199617184F803
:1036500006A0002184F807A00220225C401C11442F
:1036600080B289B20828F8D3B3E7188B002892D12A
:10367000A5202070FA206070DF20A07084F803A0DD
:1036800022710699617184F806A0002084F807A0D1
:103690000221625C491C104489B280B20829F8D327
:1036A000C5E000BF84F80AB00B21F9E3188B0028AD
:1036B00093D1A5202070FA206070E020A07084F8DB
:1036C00003A022710999617184F806A0002084F892
:1036D00007A00221625C491C104489B280B208290B
:1036E000F8D3A4E0188B0028A4D1A5202070FA20DC
:1036F0006070E120A07084F803A0227107996171C5
:1037000084F806A0002184F807A00220225C401C57
:10371000114480B289B20828F8D35AE7188B0028E0
:1037200088D1A5202070FA206070E220A07084F873
:1037300003A084F80490617184F806A0002184F845
:1037400007A00220225C401C114480B289B20828E4
:10375000F8D33EE7188B002889D1A5202070FA20E5
:103760006070E320A07084F803A02671627184F871
:1037700006A0002084F807A00221625C491C1044C6
:1037800089B280B20829F8D351E0188B00288FD174
:10379000A5202070FA206070E420A07084F803A0B7
:1037A0002671627184F806A0002184F807A0022027
:1037B000225C401C114480B289B20828F8D308E783
:1037C000188B002890D1A5202070FA206070E52089
:1037D000A07084F803A084F8048084F805C084F8FD
:1037E00006A0002184F807A00220225C401C11449E
:1037F00080B289B20828F8D3EBE6188B00288FD165
:10380000A5202070FA206070E620A07084F803A044
:103810002671627184F806A0002084F807A00221B6
:10382000625C491C104489B280B20829F8D3010AAD
:103830002172607236E7188B00288DD1A520207088
:10384000FA206070E720A07084F803A026716271EE
:1038500084F806A0002184F807A00220225C401C06
:10386000114480B289B20828F8D3B2E6188B002838
:103870008DD1A5202070FA206070E820A07084F817
:1038800003A02671627184F806A0002184F807A0C5
:103890000220225C401C114480B289B20828F8D36F
:1038A00097E6188B00288DD1A5202070FA20607033
:1038B000E920A07084F803A02671627184F806A044
:1038C000002184F807A00220225C401C114480B231
:1038D00089B20828F8D37CE6188B00288FD1A52060
:1038E0002070FA206070EA20A07084F803A027718D
:1038F000667184F806A0002184F807A0022003E086
:103900003C010020E4440020225C401C114480B2B1
:1039100089B20828F3D35CE6F748008B00288CD1E5
:10392000A5202070FA206070EB20A07084F803A01E
:103930002371627184F806A0002184F807A0022098
:10394000225C401C114480B289B20828F8D340E6BA
:10395000E948008B00288BD1A5202070FA206070E8
:10396000EC20A07084F803A084F804A084F805A0DB
:1039700084F806A00C20E0710B9820720C986072FD
:1039800084F80AE00198E072059820730698607345
:103990000498A0730998E0730898207407986074DD
:1039A00084F81290E17400210220225C401C114432
:1039B00089B209E012E062E0F8E03AE14FE155E156
:1039C00070E175E188E19BE180B21428EDD3080A2B
:1039D0002075617584F816B0172166E6C648008B1D
:1039E00000289CD1A5202070FA20607084F802B0D5
:1039F00084F803A084F804A084F805A05A4684F84B
:103A000006A011E08CE1A8E1AFE1B6E1C2E1C9E1B5
:103A1000D0E1D7E1DFE1FAE101E20AE211E229E2D5
:103A200043E260E27DE29BE20E20E0710B9820729F
:103A30000C9860720D98A0720E98E07284F80CE0F9
:103A4000019860730598A0730698E0730498207439
:103A5000099860740898A0740798E07484F814902A
:103A6000617500210220235C401C194480B289B298
:103A70001628F8D3080AA075E1752276F3E39E486C
:103A8000008B0028ADD1A5202070FA206070EE20B8
:103A9000A07084F803A084F804A084F805A084F83A
:103AA00006A02020E0710B9820720C9860720D988F
:103AB000A0720E98E07284F80CE00198607305988B
:103AC000A0730698E073049820740998607406E067
:103AD0007CE2A7E2CBE2EEE211E341E360E3089887
:103AE000A0740798E07484F8149061751C98A07510
:103AF0001798E075169820761998607684F81A80E1
:103B000084F81BC013982077189860771D98A077C9
:103B10001198E0771B9884F82000109884F8210011
:103B20001E9884F8220024E05DE37CE39CE3B9E383
:103B3000D6E3F3E3F3E3F3E3F3E3F3E3F3E3F3E3F2
:103B4000F3E3F3E3F3E3F3E3F3E3F3E3F3E3F3E3C5
:103B5000F3E3F3E3F3E3F3E3F3E3F3E3F3E3F3E3B5
:103B6000F3E3F3E3F3E3F3E3F3E3F3E3F3E3F3E3A5
:103B7000F3E3129884F8230084F8247084F8256015
:103B800084F82630002184F827200220225C401C83
:103B9000114480B289B22828F8D3080A84F8280092
:103BA00084F8291084F82AB02B217EE5088B0028A0
:103BB0007FF4F1AC0F46897AF87A06EA01210844CD
:103BC0000004000C3FF4E7AC8242FFF4E4AC03EBEA
:103BD00040101C22494905F02FFDA5202070FA2035
:103BE0006070397A7031A17084F803A0BA7A2271BA
:103BF000F87A607184F806A01C20E0713F4900202B
:103C000023180A5C401C80B21A721C28F8D30021C9
:103C10000220225C401C114480B289B22428F8D3CF
:103C2000080A84F8240084F8251084F826B0272197
:103C30003BE5088B0028BBD1887AC97A06EA0020C8
:103C400008440004000CBDD08242BED303EB4010F8
:103C50001C222A4905F0F0FC0DF0D6FB87E4088B06
:103C60000028A5D102F044FD502095E4088B0028DF
:103C70009ED1A5202070FA206070EF20A07084F8FB
:103C800003A0110A2171627184F806A0002184F852
:103C900007A00220225C401C114480B289B208288F
:103CA000F8D396E4088B0028C5D105F0FDFBDBE7CF
:103CB000088B0028BFD1487A8A7AC97A02EB0020A3
:103CC00001EB0020B0F5000FBFF465AC05F002FC7D
:103CD000CAE7F4E3F4E3F4E3088B0028ABD1487AB5
:103CE0008A7AC97A02EB002001EB0020B0F5000FC0
:103CF000EAD205F085FBB7E73C010020F472002012
:103D0000088B002897D1487A8A7AC97A02EB00207A
:103D100001EB0020B0F5000FD6D205F09BFBA3E726
:103D2000088B022887D1487A8A7AC97A02EB002068
:103D300001EB00200599019A06EA012111448EB297
:103D4000B0F5000FC0D242F210718E42BCD23246A2
:103D5000FB4905F071FC3146A7E4C87A0E28B3D2BE
:103D6000098B002984D168700FE2C87A0228ABD28F
:103D7000098B002998D1A870F6E7C87AA0F10A0249
:103D80005A2A3FF608AC098B00298DD1E870FDF75F
:103D9000ABFD69E0C87A052896D2098B002989D144
:103DA0002871E1E7C87A02288ED2098B002995D1C3
:103DB0006871D9E7C87A022886D2098B00298DD18B
:103DC000A871D1E7C87A421EFE2A91D2098B002938
:103DD00084D1E871C8E7C87A022889D2098B002902
:103DE00090D1287203F09CFC04F0B6FFBCE7F2E32C
:103DF000F2E3F2E3F2E3F2E3F2E3F2E3F2E3F2E31B
:103E0000F2E3F2E3F2E3F2E3F2E3F2E3F2E3C87A9D
:103E1000092897D2098B002984D1687206E0C87AF4
:103E200002288FD2098B00299CD1A87203F078FC5C
:103E30009AE7C87A022885D2098B002992D1E872C4
:103E400092E7C87A1E289CD8098B00298AD128734A
:103E5000FDF74AFD287B00287FF429AFB949A1F876
:103E600000A0B94981F800A0E978B848491C03F0DE
:103E700041F9F9E6C87A02288ED2098B002984D14B
:103E80006873FDF731FD502001F03EFD6A7BB049BB
:103E9000B0480AB1012A04D00E80A0F800A0DDE6E7
:103EA000F4E3A1F800A00680D8E6487A192809D2E0
:103EB000CA7A192A06D20B8B23B9904202D0284421
:103EC00082730DE0FF288BD1088B192888D1A24975
:103ED00000202B180A5C401C80B29A731928F8D372
:103EE0000120287240E7487A19280AD2CA7A192A8A
:103EF00007D20B8B2BB9904203D0284480F828209E
:103F0000EEE7FF2888D1088B192885D19249002037
:103F10002B180A5C401C80B283F828201928F7D39C
:103F2000DEE74A7A192A0BD2C87A192808D20B8BF5
:103F300033B9824204D0897A294481F84200CFE71C
:103F4000FF2A9CD1088B192899D1834900202B186E
:103F50000A5C401C80B283F842201928F7D3BFE7DF
:103F6000487A192801D20A8BF2B1FF2887D1088B31
:103F7000322884D17849002040F22E4301EB4007DB
:103F800011F810207F7806EA02223A4492B2A2F198
:103F90000A079F4203D805EB4007A7F85C20401CA6
:103FA00080B21928EAD3DFE68A7AC97A06EA0222C1
:103FB000114489B2A1F10A0240F22E439A423FF61F
:103FC000EAAA05EB4000A0F85C10CDE69EF8097067
:103FD0007046052F04D2B0F818C0BCF1000F10D005
:103FE000FF2F8FD1BEF818000A288BD1A5F88E209C
:103FF000A5F89010A5F89230A5F89480A5F89690B1
:10400000B2E6817A9EF80B0006EA0121084480B2EC
:10401000411EB1F57A7FBFF4BEAA05EB4701A1F8B6
:104020008E00A1E64D48477A062F04D2B0F818C09A
:10403000BCF1000F11D0FF2F86D1008B0C2895D139
:10404000A5F89820A5F89A10A5F89C30A5F89E80B0
:10405000A5F8A090A5F8A2E086E6817AC07A06EAE3
:104060000121084405EB4701A1F898007CE697F888
:1040700009C0BCF1060F01D2388B90B1BCF1FF0F23
:10408000AFD1388B0C28ACD1A5F8A420A5F8A61088
:10409000A5F8A830A5F8AA80A5F8AC90A5F8AEE0E0
:1040A00062E6B87AF97A06EA0020084405EB4C018A
:1040B000A1F8A40058E697F809C0BCF1030F01D29B
:1040C000388B60B1BCF1FF0F8BD1388B062888D1BB
:1040D000A5F8B020A5F8B210A5F8B43044E6B87A37
:1040E000F97A06EA0020084480B2411E41F2883283
:1040F000914290D205EB4C01A1F8B00034E6787AF9
:10410000042804D2B7F818C0BCF1000F0DD0FF2866
:1041100092D1388B08288FD1A5F8B620A5F8B81011
:10412000A5F8BA30A5F8BC801EE6B97AFA7A06EA94
:10413000012105EB40001144A0F8B61014E6000080
:1041400024190020200000201C0000200004004052
:104150008A0100208C010020E44400203C01002062
:10416000787A042804D2B7F818C0BCF1000F0DD03B
:10417000FF2885D1388B082885D1A5F8BE20A5F861
:10418000C010A5F8C230A5F8C48004E2B97AFA7A62
:1041900006EA012105EB40001144A0F8BE10FAE147
:1041A000787A032804D2B7F818C0BCF1000F0BD0FE
:1041B000FF2889D1388B062886D1A5F8C620A5F816
:1041C000C810A5F8CA30E6E1B97AFA7A06EA012100
:1041D000114489B24A1EB2F5FA7F8AD205EB40003B
:1041E000A0F8C610D7E1787A042804D2B7F818C02E
:1041F000BCF1000F0DD0FF288AD1388B082887D159
:10420000A5F8CC20A5F8CE10A5F8D030A5F8D2801E
:10421000C1E1B97AFA7A06EA012105EB40001144BE
:10422000A0F8CC10B7E1787A042804D2B7F818C007
:10423000BCF1000F0DD0FF289BD1388B082898D1F6
:10424000A5F8D420A5F8D610A5F8D830A5F8DA80BE
:10425000A1E1B97AFA7A06EA012105EB400011449E
:10426000A0F8D41097E1EFE37B7A022B01D2388BD0
:1042700048B1FF2B9DD1388B04289AD1A5F8DC20BA
:10428000A5F8DE1087E1B87AF97A06EA002008443A
:1042900080B2411EB1F57A7F9FD205EB4301A1F8B0
:1042A000DC0078E1787A032804D2B7F818C0BCF1B2
:1042B000000F0BD0FF289FD1388B06289CD1A5F882
:1042C000E020A5F8E210A5F8E43064E1B97AFA7AC2
:1042D00006EA012105EB40001144A0F8E0105AE184
:1042E00097F809C0BCF1030F01D2388B60B1BCF163
:1042F000FF0F84D1388B06289ED1A5F8E620A5F8BB
:10430000E810A5F8EA3046E1B87AF97A06EA002022
:10431000084405EB4C01A1F8E6003CE11EE045E055
:1043200068E08BE0B1E0D7E0FAE017E134E162E168
:104330007FE19CE1BAE1D7E1F5E112E22FE24CE244
:1043400069E286E2A3E2C2E2E3E2F4E208E31BE30D
:104350002DE33CE34AE359E367E376E3787A052803
:1043600004D2B7F818C0BCF1000F0FD0FF2884D1D9
:10437000388B0A289FD1A5F8EC20A5F8EE10A5F8F7
:10438000F030A5F8F280A5F8F49004E1B97AFA7A51
:1043900006EA0121114489B24A1EB2F57A7FBFF4C0
:1043A000FAA805EB4000A0F8EC10F4E0787A0628B3
:1043B00004D2B7F818C0BCF1000F11D0FF2898D173
:1043C000388B0C2895D1A5F8F620A5F8F810A5F89B
:1043D000FA30A5F8FC80A5F8FE90A5F800E1DAE037
:1043E000B97AFA7A06EA012105EB40001144A0F8F7
:1043F000F610D0E0787A062804D2B7F818C0BCF1DD
:10440000000F11D0FF28B2D1388B0C28AFD1A5F8FE
:104410000221A5F80411A5F80631A5F80881A5F830
:104420000A91A5F80CE1B6E0B97AFA7A06EA012118
:1044300005EB40001144A0F80211ACE0787A0528A1
:1044400004D2B7F818C0BCF1000F0FD0FF288ED1EE
:10445000388B0A288BD1A5F80E21A5F81011A5F8E4
:104460001231A5F81481A5F8169194E0B97AFA7A78
:1044700006EA0121114489B24A1EB2F57A7F8ED232
:1044800005EB4000A0F80E1185E0787A062804D2EA
:10449000B7F818C0BCF1000F14D0FF288FD1388BAB
:1044A0000C288CD1A5F81821A5F81A11A5F81C31F3
:1044B000A5F81E81A5F82091A5F822E16BE0D4E2D1
:1044C0000BE341E3B97AFA7A06EA012105EB4000F1
:1044D0001144A0F818115EE097F809C0BCF1060F6E
:1044E00001D2388B90B1BCF1FF0F8CD1388B0C28E6
:1044F00089D1A5F82421A5F82611A5F82831A5F819
:104500002A81A5F82C91A5F82EE144E0B87AF97A31
:1045100006EA0020084405EB4C01A1F824013AE02A
:1045200097F809C0BCF1030F01D2388B60B1BCF120
:10453000FF0F8CD1388B062889D1A5F83021A5F83A
:104540003211A5F8343126E0B87AF97A06EA00206B
:10455000084405EB4C01A1F830011CE097F809C0B4
:10456000BCF1030F01D2388B60B1BCF1FF0F95D1C4
:10457000388B062892D1A5F83621A5F83811A5F870
:104580003A3108E0B87AF97A06EA0020084405EBE7
:104590004C01A1F8360109E27B7A022B01D2388B5B
:1045A00048B1FF2BA1D1388B04289ED1A5F83C211E
:1045B000A5F83E11FAE1B87AF97A06EA0020084433
:1045C00080B2411EB1F57A7FBEF4E5AF05EB430141
:1045D000A1F83C01EAE1EEE243E398E3F2E3F2E31F
:1045E000F2E3F2E3F2E3F2E3F2E3F2E3F2E3F2E323
:1045F000F2E3F2E3F2E397F809C0BCF1030F01D252
:10460000388B60B1BCF1FF0F93D1388B062890D165
:10461000A5F84021A5F84211A5F84431C6E1B87AC1
:10462000F97A06EA0020084405EB4C01A1F84001A4
:10463000BCE197F809C0BCF1030F01D2388B60B11F
:10464000BCF1FF0F93D1388B062890D1A5F84621F5
:10465000A5F84811A5F84A31A8E1B87AF97A06EA2E
:104660000020084405EB4C01A1F846019EE17B7A4D
:10467000022B01D2388B50B1FF2B93D1388B0428F9
:1046800090D1A5F84C21A5F84E118FE1EBE3B87A53
:10469000F97A06EA0020084480B2411EB1F57A7F1B
:1046A00092D205EB4301A1F84C017FE197F809C0D4
:1046B000BCF1030F01D2388B60B1BCF1FF0FA3D165
:1046C000388B0628A0D1A5F85021A5F85211A5F8DD
:1046D00054316BE1B87AF97A06EA0020084405EB18
:1046E0004C01A1F8500161E1787A032804D2B7F8AF
:1046F00018C0BCF1000F02D0FF280AD0FCE3B97A41
:10470000FA7A06EA012105EB40001144A0F856119F
:104710004CE1388B0628F1D1A5F85621A5F858119F
:10472000A5F85A3142E17B7A022B01D2388B48B18D
:10473000FF2B87D1388B042884D1A5F85C21A5F8FC
:104740005E1133E1B87AF97A06EA0020084480B2B3
:10475000411EB1F57A7FA3D205EB4301A1F85C01BC
:1047600024E197F809C0BCF1030F01D2388B60B186
:10477000BCF1FF0F84D1388B0628A0D1A5F86021A9
:10478000A5F86211A5F8643110E1B87AF97A06EA61
:104790000020084405EB4C01A1F8600106E197F800
:1047A00009C0BCF1030F01D2388B60B1BCF1FF0F1F
:1047B00085D1388B062885D1A5F86621A5F8681122
:1047C000A5F86A31F2E0B87AF97A06EA00200844DE
:1047D00005EB4C01A1F86601E8E07B7A022B01D2DF
:1047E000388B48B1FF2BA4D1388B0428A1D1A5F870
:1047F0006C21A5F86E11D9E0B87AF97A06EA0020A2
:10480000084480B2411EB1F57A7FA4D205EB430182
:10481000A1F86C01CAE097F809C0BCF1030F01D2FE
:10482000388B60B1BCF1FF0F86D1388B0628A1D13F
:10483000A5F87021A5F87211A5F87431B6E0B87A20
:10484000F97A06EA0020084405EB4C01A1F8700152
:10485000ACE097F809C0BCF1030F01D2388B60B10E
:10486000BCF1FF0F86D1388B062886D1A5F87621BA
:10487000A5F87811A5F87A3198E0B87AF97A06EABD
:104880000020084405EB4C01A1F876018EE0787A0F
:10489000042801D2398B89B1FF2889D1388B0428AB
:1048A00086D10598A5F87C010198A5F87E010698A7
:1048B000A5F880010498A5F8820177E0F97A4A1EEC
:1048C000632AA2D205EB4000A0F87C116EE0787A52
:1048D000052804D2B7F818C0BCF1000F0FD0FF288C
:1048E00084D1388B0A289FD1A5F88421A5F8861198
:1048F000A5F88831A5F88A81A5F88C9156E0B97A97
:10490000FA7A06EA012105EB40001144A0F884116F
:104910004CE0787A398B084386D1B87AF97A06EA7E
:104920000020084480B2411E4FF6FE729142C8D268
:10493000A5F88E013AE0787A398B084392D1B87A9B
:10494000F97A06EA0020084480B2A0F10A0240F297
:104950002E418A4201D9002884D1A5F8900125E092
:10496000787A398B084398D1B87AF97A06EA002028
:10497000084480B2A0F10A0140F24E2291423EF674
:104980000AAEA5F8920111E0787A398B084384D1F8
:10499000B87AF97A06EA0020084480B2A0F10A0148
:1049A00040F22E429142EAD8A5F8940109E2787AC1
:1049B000398B084394D1B87AF97A06EA0020084482
:1049C00080B2B0F5167FDAD8A5F89601F9E1787AC9
:1049D000398B084384D1B87AF97A06EA0020084472
:1049E00080B26428CBD8A5F89801EAE1787A398BAF
:1049F000084391D1B87AF97A06EA0020084480B2D7
:104A0000B0F5966FBBD8A5F89A01DAE1787A398BC0
:104A1000084393D1B87AF97A06EA0020084480B2B4
:104A20006428ACD8A5F89C01CBE1787A398B08438F
:104A300084D1B87AF97A06EA0020084480B2642862
:104A40009DD8A5F89E01BCE12FE3787A398B084305
:104A500089D1B87AF97A06EA0020084480B2B0F524
:104A6000967F8CD8A5F8A001ABE1DFF83CA59AF8B9
:104A700009C0BCF10B0F02D2BAF8180008B3BCF1A0
:104A8000FF0F84D1BAF81800162893D1A5F8A221F7
:104A9000A5F8A411A5F8A631A5F8A881A5F8AA91B2
:104AA000A5F8ACE10F98A5F8AE011098A5F8B001F3
:104AB0001198A5F8B2011298A5F8B401A5F8B6713D
:104AC000FFE39AF80A109AF80B0006EA012108445D
:104AD00005EB4C01A1F8A201F3E39CF80900E246C2
:104AE0000B2804D2BAF818C0BCF1000F20D0FF2860
:104AF0008FD1BAF8180016288BD1A5F8B821A5F8DF
:104B0000BA11A5F8BC31A5F8BE81A5F8C091A5F8E9
:104B1000C2E10F98A5F8C4011098A5F8C601119834
:104B2000A5F8C8011298A5F8CA01A5F8CC71C8E388
:104B30009AF80A109AF80B2006EA012105EB4000CA
:104B40001144A0F8B811BCE39CF80900E2460B2818
:104B500004D2BAF818C0BCF1000F20D0FF2890D1C1
:104B6000BAF8180016288CD1A5F8CE21A5F8D011D6
:104B7000A5F8D231A5F8D481A5F8D691A5F8D8E149
:104B80000F98A5F8DA011098A5F8DC011198A5F89E
:104B9000DE011298A5F8E001A5F8E27191E39AF818
:104BA0000A109AF80B2006EA012105EB4000114497
:104BB000A0F8CE1185E3FC48467A0A2E02D2028B79
:104BC000042A43D0FF2E93D1008B282890D1084689
:104BD0001FF062FCC5F8E40105F5F2750C981FF0B2
:104BE0005BFC68600E981FF057FCA8600F981FF0E0
:104BF00053FCE86010981FF04FFC286111981FF0DB
:104C00004BFC686112981FF047FCA86148461FF0F2
:104C100043FCE86140461FF03FFC286238461FF025
:104C20003BFCDFF8888368620026A5F5F27500BFBB
:104C300005EB86074146D7F8E4011FF02FFB761CF1
:104C4000B6B2C7F8E4010A2EF2D33AE308461FF0E1
:104C500023FC05EB8606D5491FF020FBC6F8E401CE
:104C60002FE3567A0A2E01D2108BE8B3FF2EAAD179
:104C7000108B2828A7D108461FF00EFCC5F80C029F
:104C800005F503750C981FF007FC68600E981FF07F
:104C900003FCA8600F981FF0FFFBE86010981FF05E
:104CA000FBFB286111981FF0F7FB686112981FF059
:104CB000F3FBA86148461FF0EFFBE86140461FF098
:104CC000EBFB286238461FF0E7FBDFF8E082686202
:104CD0000026A5F5037500BF05EB86074146D7F80A
:104CE0000C021FF0DBFA00E006E0761CB6B2C7F853
:104CF0000C020A2EF0D3E4E208461FF0CDFB05EBD0
:104D00008606AA491FF0CAFAC6F80C02D9E2567AFA
:104D10000A2E01D2108BE8B3FF2EA8D1108B2828C1
:104D2000A5D108461FF0B8FBC5F8340205F50D758E
:104D30000C981FF0B1FB68600E981FF0ADFBA860E7
:104D40000F981FF0A9FBE86010981FF0A5FB2861E1
:104D500011981FF0A1FB686112981FF09DFBA861DC
:104D600048461FF099FBE86140461FF095FB28621A
:104D700038461FF091FBDFF8348268620026A5F503
:104D80000D7500BF05EB86074146D7F834021FF0CA
:104D900085FA00E006E0761CB6B2C7F834020A2EA7
:104DA000F0D38EE2DDE9041001EB002101EB0E00EF
:104DB0001FF08AFB05EB86067C491FF06FFAC6F8E8
:104DC00034027EE20BE061E072E083E095E0A6E071
:104DD000B3E0CCE0DBE0EDE00EE113E127E1567A51
:104DE0000A2E01D2108BE8B3FF2E96D1108B282803
:104DF00093D108461FF050FBC5F85C0205F5177506
:104E00000C981FF049FB68600E981FF045FBA860E6
:104E10000F981FF041FBE86010981FF03DFB2861E0
:104E200011981FF039FB686112981FF035FBA861DB
:104E300048461FF031FBE86140461FF02DFB286219
:104E400038461FF029FBDFF8648168620026A5F56B
:104E5000177500BF05EB86074146D7F85C021FF0C7
:104E60001DFA01E007E021E1761CB6B2C7F85C024A
:104E70000A2EEFD325E208461FF00EFB05EB86064F
:104E80004A491FF00BFAC6F85C021AE2108B0028A0
:104E9000ABD1507A917A01EB0020D17A01EB00205E
:104EA0001FF012FB41491FF0F9F9C5F8840208E22E
:104EB000108B002899D1507A917A01EB0020D17A99
:104EC00001EB00201FF000FB38491FF0E7F9C5F89F
:104ED0008802F6E1108B002887D1507A917A01EB95
:104EE0000020D17A01EB00201FF0EEFA2F491FF0CD
:104EF000D5F9C5F88C02E4E125E1108B0028C7D173
:104F0000507A917A01EB0020D17A01EB00201FF05A
:104F1000DBFA26491FF0C2F9C5F89002D1E1118BE6
:104F20000429B5D1224A00202E18135C401C80B2FF
:104F300086F894328842F7D3C3E1108B411E2729AB
:104F4000BEF429AB00211A4A05E0535C6E18491CD7
:104F500086F8983289B28142F7D3514604E02A1884
:104F6000401C82F8981280B22828F8D3A9E1507A20
:104F7000118B08438CD1907AD17A06EA002008443C
:104F800080B2B0F5EB7F01D8A5F8C60299E1507A5E
:104F9000118B08438ED1907AD17A06EA002008441A
:104FA000A5F8C8028DE100003C01002000401C462D
:104FB000E4440020108B00288ED1FA48007818288D
:104FC0008AD1F9480746FBF741F986B2282EB7D2B5
:104FD000F648B5F8C8120288F548FBF761FC704244
:104FE000A02202EB8000B5F8C61280B2F04B3A4620
:104FF000FDF75EFEFEF738BE108B002891D1FCF75E
:10500000B3FAF7E7108B00288BD14FF4B37200BFCF
:1050100035F810100B0A04F8103004EB4003401C64
:1050200080B259709042F3D34FF433713EE0108B4D
:1050300000289FD1A5202070FA206070D520A07094
:1050400084F803A084F804A084F805A084F806A0DE
:105050000E20E071D7480178217241786172817821
:10506000A172C178E1724179217381796173017A0A
:10507000A173417AE173017B2174417B6174C17B2F
:10508000A174017CE174817C2175C07C6075002174
:105090000220225C401C114480B289B21628F8D349
:1050A000080AA075E17584F818B01921C248FDF707
:1050B000ADFE48E0108B0028A0D10021BF4802F0CF
:1050C00019F8002005F066F9BD494FF480500860DA
:1050D000502000F019FCFEE7108B00288ED1002133
:1050E000B64802F007F8002005F054F9502000F00F
:1050F0000BFC142004F002FE01F0FEFB23E0D07A4A
:105100000228BEF448AA118B002992D1012805D0AB
:1051100000288ED1A94801F0EDFF0FE0E978A748FB
:10512000491C01F0E7FF0BE0D07A0228E9D2118B8D
:105130000029C1D1012803D00028BDD1002000E002
:10514000012000F0E1FBDFF87C924FF0020899F8B3
:105150000600002835D0002289F8062099F80500BD
:10516000F526852701287DD002287CD003287BD016
:1051700004287AD0052879D0062878D0072877D057
:10518000082876D0092875D00A2874D00B2873D047
:105190000C2872D00D2871D00E2870D00F286FD037
:1051A00010286ED011286DD012286CD013286BD027
:1051B000854B142869D0152868D0162867D0172881
:1051C00066D095E3D07A02289BD2118B002985D135
:1051D0007E494FF40052012803D0002895D14A613E
:1051E000ACE70A61ACE7108B00288ED1A5202070B7
:1051F000FA206070DB20A070754984F803A084F861
:1052000004A00978617184F806A0002184F807A041
:105210000220225C401C114480B289B20828F8D3D5
:10522000080A20726172FEF73DBA108B062884D1FD
:10523000059F85F8C072019985F8C112069885F816
:10524000C202049E85F8C362079A85F8C422089BAF
:10525000133F85F8C532512F02D3142785F8C07249
:10526000491E16E030E045E05AE06FE084E0BBE024
:10527000D0E0E5E0FAE00FE124E139E152E167E155
:105280007CE191E1A9E1DBE112E27CE2CAE2E3E246
:1052900003E30C2902D3062185F8C112401E1F2802
:1052A00002D3012085F8C2023B2E02D90C2085F8DA
:1052B000C3023B2A01D985F8C4A23B2B01D985F84A
:1052C000C5A2FCF711FB95E62670E9796170A7701D
:1052D000E070404884F804800088010A6171A07180
:1052E00000210120225C401C114480B289B20728B1
:1052F000F8D36EE12670E9796170A770E0703648E6
:1053000084F804800088010A6171A07100210120E5
:10531000225C401C114480B289B20728F8D358E1BE
:105320002670E9796170A770E0702C4884F80480D9
:105330000088010A6171A07100210120225C401CDB
:10534000114480B289B20728F8D342E12670E97986
:105350006170A770E070224884F804800088010A18
:105360006171A07100210120225C401C114480B2B7
:1053700089B20728F8D32CE12670E9796170A7700B
:10538000E070184884F804800088010A6171A071F7
:1053900000210120225C401C114480B289B2072800
:1053A000F8D316E180010020E4700020880100207D
:1053B000087200205400002024190020000400403E
:1053C000140C01403C01002034400020001001403A
:1053D0006E0000208600002088000020CA00002007
:1053E000F6000020160100202670E9796170A77090
:1053F000E070FB4884F804800088010A6171A071A4
:1054000000210120225C401C114480B289B207288F
:10541000F8D3DEE02670E9796170A770E070F1489A
:1054200084F804800088010A6171A07100210120C4
:10543000225C401C114480B289B20728F8D3C8E02E
:105440002670E9796170A770E070E74884F80480FD
:105450000088010A6171A07100210120225C401CBA
:10546000114480B289B20728F8D3B2E02670E979F6
:105470006170A770E070DD4884F804800088010A3C
:105480006171A07100210120225C401C114480B296
:1054900089B20728F8D39CE02670E9796170A7707B
:1054A000E070D34884F804800088010A6171A0711B
:1054B00000210120225C401C114480B289B20728DF
:1054C000F8D386E02670E9796170A770E070C9486A
:1054D00084F804800088010A6171A0710021012014
:1054E000225C401C114480B289B20728F8D370E0D6
:1054F0002670E9796170A770E070BF4884F8048075
:105500000088010A6171A07100200121625C491CC0
:10551000104489B280B20729F8D3010AE1712072E0
:105520000921E2E12670E9796170A770E070B34863
:1055300084F804800088010A6171A07100210120B3
:10554000225C401C114480B289B20728F8D340E0A5
:105550002670E9796170A770E070A94884F804802A
:105560000088010A6171A07100210120225C401CA9
:10557000114480B289B20728F8D32AE02670E9796D
:105580006170A770E0709F4884F804800088010A69
:105590006171A07100210120225C401C114480B285
:1055A00089B20728F8D314E02670E9796170A770F2
:1055B000E070954884F804800088010A6171A07148
:1055C00000210120225C401C114480B289B20728CE
:1055D000F8D3080AE0712172A2E72670E9796170B8
:1055E000A770E0700C20207188480088010A617162
:1055F000A07187480088010AE171207285480088FF
:10560000010A6172A07284480088010AE172207365
:1056100073480088010A6173A07372480088010A08
:10562000E173207400210120225C401C114480B2EF
:1056300089B21128F8D3080A6074A174132154E1C7
:105640002670E9796170A770E0700E2020716F48B4
:105650000088010A6171A07170480088010AE17137
:1056600020726B480088010A6172A0726948008844
:10567000010AE172207368480088010A6173A0730F
:1056800057480088010AE173207456480088010ACF
:105690006174A07400210120225C401C114480B27E
:1056A00089B21328F8D3080AE074217515211CE18A
:1056B0002670E9796170A770E0702020207153484E
:1056C0000088010A6171A07154480088010AE171E3
:1056D00020724F480088010A6172A0724D4800880C
:1056E000010AE17220734C480088010A6173A073BB
:1056F0003B480088010AE17320743A480088010A97
:105700006174A07438480088010AE1742075374834
:105710000088010A6175A07535480088010AE175A5
:10572000207634480088010A6176A07632480088E5
:10573000010AE176207731480088010A6177A07775
:105740002F480088010AE17784F820002D4800885E
:10575000010A84F8211084F822002B480088010AED
:1057600084F8231084F8240000210120225C401CCE
:10577000114480B289B22528F8D3080A04F8250F0D
:1057800061702721B1E0B9F81000012805D118781F
:105790009A46502802D05A2804D0A9E0E978204837
:1057A000491C01E000211E4801F0A4FC2670E879A4
:1057B0006070A77099F80500E070012020719AF8D8
:1057C0000000607100210120225C401C114480B265
:1057D00089B20628F8D3080AA071E171082184E093
:1057E000780000207A000020840000208A00002039
:1057F0008C0000208E0000209000002092000020ED
:1058000094000020960000209800002086000020D0
:10581000CA000020F60000201601002088000020A9
:1058200000040040B9F81010012961D119785029FD
:1058300001D05A295CD12670EA796270A770E070B5
:105840000120207161710021225C401C114480B252
:1058500089B20628F8D3BEE72670E9796170A7708F
:10586000E0700420207195F89402607195F895021B
:10587000A07195F89602E07195F8970220720021C8
:105880000120225C401C114480B289B20928F8D35F
:10589000080A6072A1720B2127E02670E979617015
:1058A000A770E0700020291891F8981239B1FF29EB
:1058B00005D02318401C80B259712028F3D3211839
:1058C000401C4A7181B20020012221714B1D04E06D
:1058D000A55C521C284480B292B29A42F8D3030AC3
:1058E0006218C91D5371907189B20648FDF78EFA8E
:1058F00099F80010012901D189F8008021B0BDE894
:10590000F08F0000241900200F49A5220A70FA2206
:105910004A700E4A127A70328A700022CA700A7176
:1059200048718A71CA7102200B5C401C1A4480B213
:1059300092B20828F8D3100A08724A72ED208872D1
:105940000B210148FDF762BA241900203C01002018
:105950007CB504460121880400F096F80121092055
:1059600000F0AAF84FF48060ADF8000003208DF835
:1059700002001820274D8DF8030069462846FBF7E2
:10598000E3FFE814ADF8000048208DF803006946F5
:105990002846FBF7D9FF27208DF8040000208DF85A
:1059A000050001218DF806108DF8071001A8FDF7FC
:1059B000F1F920011EF088FD014617481EF06EFC2B
:1059C00005461EF049FD84B220461EF07DFD2946A5
:1059D0001EF08EFE04211EF03CFF1EF03DFD4FF632
:1059E000FF7101EA041108440C490880081D018870
:1059F00042F20C0211430180084C0122083C40F2A3
:105A00002551204603F0E2FC0121204603F0D4FC9E
:105A10007CBD0000000C01404054094C0848004087
:105A200070470000014908627047000000000E4204
:105A300000F062BF0749D1E901329A4208D0064816
:105A4000824201D3173888608A6812F8010B8A6095
:105A5000704700006C010020566D0020034A516819
:105A600021F44041014351607047000000100240A2
:105A7000044A0029516901D0014300E0814351618A
:105A80007047000000100240044A0029D16901D08B
:105A9000014300E08143D1617047000000100240E3
:105AA000044A0029116901D0014300E081431161DA
:105AB0007047000000100240044A0029916901D09B
:105AC000014300E0814391617047000000100240F3
:105AD000044A0029D16801D0014300E08143D1602C
